:020000040800F2
:1000000070060020890100081F030008590200083B
:100010001D030008430200082B0300080000000035
:1000200000000000000000000000000023030008A2
:100030004502000800000000210300082503000815
:10004000A3010008A3010008A3010008A301000800
:10005000A3010008A3010008A3010008A3010008F0
:10006000A3010008A3010008A3010008A3010008E0
:10007000A3010008A3010008A3010008A3010008D0
:10008000A3010008A3010008A3010008A3010008C0
:10009000A3010008A3010008A3010008A3010008B0
:1000A000A3010008A3010008A3010008A3010008A0
:1000B000A3010008A3010008A30100085D020008D5
:1000C000A3010008A3010008A3010008A301000880
:1000D000A3010008A3010008A3010008A301000870
:1000E000A3010008A3010008A301000800F002F822
:1000F00000F03AF80AA090E8000C82448344AAF188
:100100000107DA4501D100F02FF8AFF2090EBAE885
:100110000F0013F0010F18BFFB1A43F0010318473B
:100120001402000034020000103A24BF78C878C1DD
:10013000FAD8520724BF30C830C144BF04680C60ED
:10014000704700000023002400250026103A28BF35
:1001500078C1FBD8520728BF30C148BF0B60704739
:100160001FB51FBD10B510BD00F031F81146FFF7E7
:10017000F7FF00F0DBF800F04FF803B4FFF7F2FFF1
:1001800003BC00F057F800000948804709480047C1
:10019000FEE7FEE7FEE7FEE7FEE7FEE7FEE7FEE737
:1001A000FEE7FEE704480549054A064B7047000094
:1001B00029030008ED0000087000002070060020F0
:1001C000700200207002002070477047704775462B
:1001D00000F02CF8AE4605006946534620F00700B3
:1001E000854618B020B5FFF7DDFFBDE820404FF091
:1001F00000064FF000074FF000084FF0000B21F011
:100200000701AC46ACE8C009ACE8C009ACE8C009DD
:10021000ACE8C0098D46704710B50446AFF30080C6
:100220002046BDE81040FFF7A8BF00000048704717
:100230001000002001491820ABBEFEE72600020096
:100240007047FEE770470000024881680278114459
:100250008160704704000020FEE700000A48016842
:1002600041F480610160084814300168890702D5B3
:100270000168011D09680068400604D50248103075
:1002800000680249087070470054004000000020D8
:100290001F48816941F008018161C16941F4001181
:1002A000C1614FF0E021C004C1F8000119480168A4
:1002B00021F07F410160016841F019410160164859
:1002C000016841F400410160016821F400410160CE
:1002D000016821F0010101601022011D0A600E4B2E
:1002E00050221C331A6011221B1D1A600A1D13684C
:1002F00043F0D00313600A6842F4C0620A600168E8
:1003000041F001010160016841F4806101607047C2
:1003100000100240000C014000540040FEE7FEE7E0
:1003200070477047FFF790BF7047FEE7FFF7B0FFD9
:10033000FEE7000054030008000000201000000049
:100340002801000864030008100000206006000077
:10035000440100080000000001000000100000003F
:040360000000000099
:04000005080000ED02
:00000001FF
