:020000040800F2
:1000000070060020350200080505000805030008F9
:1000100003050008EF0200082105000800000000A9
:1000200000000000000000000000000009050008BA
:10003000F102000800000000070500080B05000899
:100040004F0200084F0200084F0200084F0200084C
:100050004F0200084F0200084F0200084F0200083C
:100060004F0200084F0200084F0200084F0200082C
:100070004F0200084F0200084F0200084F0200081C
:100080004F0200084F0200084F0200080000000065
:100090000000000000000000000000004F02000807
:1000A0004F0200084F0200084F0200084F020008EC
:1000B0004F0200084F0200084F0200084F020008DC
:1000C0004F0200084F0200084F0200084F020008CC
:1000D0004F0200084F0200084F0200080000000015
:1000E0004F0200084F0200084F0200080000000005
:1000F0000000000000000000000000004F020008A7
:10010000000000004F0200084F0200084F020008E4
:1001100000000000000000000000000000000000DF
:100120004F0200084F0200084F0200084F0200086B
:100130004F02000800000000000000000000000066
:100140000000000000000000000000004F02000856
:100150004F0200084F0200084F0200084F0200083B
:100160004F0200084F0200080000000000000000DD
:10017000000000000000000000000000000000007F
:10018000000000004F020008000000000000000016
:100190004F02000800F002F800F03CF80AA090E8D6
:1001A000000C82448344AAF10107DA4501D100F032
:1001B00031F8AFF2090EBAE80F0013F0010F18BFC3
:1001C000FB1A43F001031847A0030000C00300001E
:1001D000103A24BF78C878C1FAD8520724BF30C873
:1001E00030C144BF04680C60704700000023002445
:1001F00000250026103A28BF78C1FBD8520728BF37
:1002000030C148BF0B6070471FB500F0A7F91FBD94
:1002100010B510BD00F031F81146FFF7F5FF00F002
:1002200087F900F04FF803B4FFF7F2FF03BC00F0CA
:1002300057F800000948804709480047FEE7FEE7F5
:10024000FEE7FEE7FEE7FEE7FEE7FEE7FEE7FEE786
:1002500004480549054A064B70470000110500088F
:100260009501000870000020700600207002002038
:1002700070020020704770477047754600F02CF8F8
:10028000AE4605006946534620F00700854618B083
:1002900020B5FFF7DDFFBDE820404FF000064FF02E
:1002A00000074FF000084FF0000B21F00701AC46AB
:1002B000ACE8C009ACE8C009ACE8C009ACE8C009CA
:1002C0008D46704710B50446AFF300802046BDE868
:1002D0001040FFF7A8BF0000004870470C00002046
:1002E00001491820ABBEFEE7260002007047FEE77A
:1002F00070470000024881680278114481607047AD
:1003000000000020FEE700001F48016841F00201E4
:1003100001601D481030016841F4001101601B4864
:10032000016841F420210160001D016841F4407121
:100330000160001D016841F470210160001D016829
:1003400041F4A021016011482430016841F04401CA
:1003500001600F48016841F400410160016821F427
:1003600000410160011D0A6842F02D020A60084A3E
:10037000E1211C3211602E21121D1160016841F033
:100380000101016070470000303802400004024063
:1003900000540040124B10B51A6842F480621A6093
:1003A0001A6842F480721A600D4A14321468E40725
:1003B000FCD00B4C1034206010688007FCD510680E
:1003C00007481830006810680006FCD521601068E6
:1003D0004007FCD5186840F40070186010BD00009C
:1003E0000054004030B54CF25034204600F099F8EB
:1003F000302000F044F8204600F093F8302000F060
:100400003EF84FF47A74204600F08BF8302000F06C
:1004100036F842F21075284600F083F8202000F0EC
:100420002EF8284600F07DF8282000F028F8204615
:1004300000F077F8082000F022F8204600F071F86C
:10044000012000F01CF8204600F06BF8204600F078
:1004500068F8062000F013F8204600F062F8BDE8C6
:1004600030400C2000F00BB810B5044603E000BF8C
:1004700000F026F8641C20780028F9D110BD38B5AA
:1004800000F0F00141F00C0200018DF8002041F075
:1004900008018DF8011040F00C018DF8021040F0B9
:1004A00008008DF8030000246D464E20295DFFF7FB
:1004B00071FF022000F035F8641C042CF5DB38BD18
:1004C00038B500F0F00141F00D0200018DF8002078
:1004D00041F009018DF8011040F00D018DF8021076
:1004E00040F009008DF8030000246D464E20295D80
:1004F000FFF750FF022000F014F8641C042CF5DB19
:1005000038BDFEE7FEE770477047FFF7F3BE000017
:100510000248016841F470010160704788ED00E015
:10052000FEE7002100E0491C8142FCD37047000037
:10053000FFF7EAFEFFF756FF4FF47A7406A0FFF7C5
:1005400093FF2046FFF7EDFF0120FFF798FF2046BD
:10055000FFF7E7FFF2E70000540000004FF04070A3
:10056000E1EE100A70470000880500080000002036
:100570000C000000D0010008940500080C000020C9
:1005800064060000EC0100080100000010000000FB
:040590000000000067
:040000050800019559
:00000001FF
