:020000040800F2
:1000000070060020350200080903000805030008F7
:1000100007030008EF020008C50300080000000005
:100020000000000000000000000000000D030008B8
:10003000F1020008000000000B0300080F03000895
:100040004F0200084F0200084F0200084F0200084C
:100050004F0200084F0200084F0200084F0200083C
:100060004F0200084F0200084F0200084F0200082C
:100070004F0200084F0200084F0200084F0200081C
:100080004F0200084F0200084F0200080000000065
:100090000000000000000000000000004F02000807
:1000A0004F0200084F0200084F0200084F020008EC
:1000B0004F0200084F0200084F0200084F020008DC
:1000C0004F0200084F0200084F0200084F020008CC
:1000D0004F020008AD0300084F02000800000000B6
:1000E0004F0200084F0200084F0200080000000005
:1000F0000000000000000000000000004F020008A7
:10010000000000004F0200084F0200084F020008E4
:1001100000000000000000000000000000000000DF
:100120004F0200084F0200084F0200084F0200086B
:100130004F02000800000000000000000000000066
:100140000000000000000000000000004F02000856
:100150004F0200084F0200084F0200084F0200083B
:100160004F0200084F0200080000000000000000DD
:10017000000000000000000000000000000000007F
:10018000000000004F020008000000000000000016
:100190004F02000800F002F800F03CF80AA090E8D6
:1001A000000C82448344AAF10107DA4501D100F032
:1001B00031F8AFF2090EBAE80F0013F0010F18BFC3
:1001C000FB1A43F0010318473802000058020000F0
:1001D000103A24BF78C878C1FAD8520724BF30C873
:1001E00030C144BF04680C60704700000023002445
:1001F00000250026103A28BF78C1FBD8520728BF37
:1002000030C148BF0B6070471FB500F0F3F81FBD49
:1002100010B510BD00F031F81146FFF7F5FF00F002
:10022000D3F800F04FF803B4FFF7F2FF03BC00F07F
:1002300057F800000948804709480047FEE7FEE7F5
:10024000FEE7FEE7FEE7FEE7FEE7FEE7FEE7FEE786
:1002500004480549054A064B70470000150300088D
:100260009501000870000020700600207002002038
:1002700070020020704770477047754600F02CF8F8
:10028000AE4605006946534620F00700854618B083
:1002900020B5FFF7DDFFBDE820404FF000064FF02E
:1002A00000074FF000084FF0000B21F00701AC46AB
:1002B000ACE8C009ACE8C009ACE8C009ACE8C009CA
:1002C0008D46704710B50446AFF300802046BDE868
:1002D0001040FFF7A8BF0000004870470C00002046
:1002E00001491820ABBEFEE7260002007047FEE77A
:1002F00070470000024881680278114481607047AD
:1003000000000020FEE7FEE7FEE770477047FFF7BA
:10031000F1BF00000248016841F4700101607047BC
:1003200088ED00E01448016841F0010101601248C5
:100330001430016841F0100101601048016841F477
:1003400020110160416A41F4EE6141620C4840F2C3
:1003500083618160C16841F40051C160C16841F0AE
:100360000C01C160C16841F02001C1600549202035
:10037000C1F8000170470000303802400000024020
:100380000010014004E000E002490A681206FCD5B2
:10039000486070470010014000B5034602E05B1C56
:1003A000FFF7F2FF18780028F9D100BD0448016872
:1003B000890603D54068C0B2FFF7E6BF704700006A
:1003C00000100140FEE70000FFF7ACFF044D05A060
:1003D000FFF7E2FF2C460220401CA042FCDBF6E7C0
:1003E0004054890048656C6C6F20576F726C640ACA
:1003F000000000004FF04070E1EE100A704700006E
:1004000020040008000000200C000000D0010008BB
:100410002C0400080C00002064060000EC01000819
:0C042000010000001000000000000000BF
:040000050800019559
:00000001FF
