:020000040800F2
:100000007006002035020008410300083D03000887
:100010003F030008EF0200085D0300080000000035
:100020000000000000000000000000004503000880
:10003000F102000800000000430300084703000825
:100040004F0200084F0200084F0200084F0200084C
:100050004F0200084F0200084F0200084F0200083C
:100060004F0200084F0200084F0200084F0200082C
:100070004F0200084F0200084F0200084F0200081C
:100080004F0200084F0200084F0200080000000065
:100090000000000000000000000000004F02000807
:1000A0004F0200084F0200084F0200084F020008EC
:1000B0004F0200084F0200084F0200084F020008DC
:1000C0004F0200084F0200084F0200084F020008CC
:1000D0004F0200084F0200084F0200080000000015
:1000E0004F0200084F0200084F0200080000000005
:1000F0000000000000000000000000004F020008A7
:10010000000000004F0200084F0200084F020008E4
:1001100000000000000000000000000000000000DF
:100120004F0200084F0200084F0200084F0200086B
:100130004F02000800000000000000000000000066
:100140000000000000000000000000004F02000856
:100150004F0200084F0200084F0200084F0200083B
:100160004F0200084F0200080000000000000000DD
:10017000000000000000000000000000000000007F
:10018000000000004F020008000000000000000016
:100190004F02000800F002F800F03CF80AA090E8D6
:1001A000000C82448344AAF10107DA4501D100F032
:1001B00031F8AFF2090EBAE80F0013F0010F18BFC3
:1001C000FB1A43F001031847740200009402000078
:1001D000103A24BF78C878C1FAD8520724BF30C873
:1001E00030C144BF04680C60704700000023002445
:1001F00000250026103A28BF78C1FBD8520728BF37
:1002000030C148BF0B6070471FB500F011F91FBD2A
:1002100010B510BD00F031F81146FFF7F5FF00F002
:10022000A9F800F04FF803B4FFF7F2FF03BC00F0A9
:1002300057F800000948804709480047FEE7FEE7F5
:10024000FEE7FEE7FEE7FEE7FEE7FEE7FEE7FEE786
:1002500004480549054A064B704700004D03000855
:100260009501000870000020700600207002002038
:1002700070020020704770477047754600F02CF8F8
:10028000AE4605006946534620F00700854618B083
:1002900020B5FFF7DDFFBDE820404FF000064FF02E
:1002A00000074FF000084FF0000B21F00701AC46AB
:1002B000ACE8C009ACE8C009ACE8C009ACE8C009CA
:1002C0008D46704710B50446AFF300802046BDE868
:1002D0001040FFF7A8BF0000004870470C00002046
:1002E00001491820ABBEFEE7260002007047FEE77A
:1002F000704700000A48016841F00101016001688F
:1003000041F0040101600748016845F2555211436C
:1003100001600548016841F0550101607047000027
:100320003038024000000240000802400248816864
:10033000027811448160704700000020FEE7FEE76C
:10034000FEE770477047FFF7F1BF00000248016801
:1003500041F470010160704788ED00E0FEE700EBBA
:1003600040020021C2EBC01000E0491CB1EBC00FFD
:10037000FBDB7047FFF7BEFF00F002F8FEE700006E
:100380002DE9F043284D8020686141F288394846C4
:10039000FFF7E5FF254B01261E604846FFF7DFFF0C
:1003A00003271F604846FFF7DAFF07241C60484612
:1003B000FFF7D5FF4FF00F08C3F800804846FFF75E
:1003C000CEFF0E2018604846FFF7C9FF0C201860CA
:1003D0004846FFF7C4FF552068614846FFF7BFFF56
:1003E0001C604846FFF7BBFFC3F800804846FFF794
:1003F000B6FF1F604846FFF7B2FF1E604846FFF792
:10040000AEFF1C604846FFF7AAFF0520186048466B
:10041000FFF7A5FF0B2018604846FFF7A0FF092053
:100420001860BDE8F083000000000240140802409C
:100430004FF04070E1EE100A704700005C040008C5
:10044000000000200C000000D00100086804000833
:100450000C00002064060000EC0100080100000010
:08046000100000000000000084
:040000050800019559
:00000001FF
