:020000040800F2
:1000000070060020350200080903000805030008F7
:1000100007030008EF0200085D040008000000006C
:10002000000000000000000000000000E5030008E0
:10003000F1020008000000000B030008E7030008BD
:100040004F0200084F0200084F0200084F0200084C
:100050004F0200084F0200084F0200084F0200083C
:100060004F0200084F0200084F0200084F0200082C
:100070004F0200084F0200084F0200084F0200081C
:100080004F0200084F0200084F0200080000000065
:100090000000000000000000000000004F02000807
:1000A0004F0200084F0200084F0200084F020008EC
:1000B0004F0200084F0200084F0200084F020008DC
:1000C0004F0200084F0200084F0200084F020008CC
:1000D0004F0200084F0200084F0200080000000015
:1000E0004F0200084F0200084F0200080000000005
:1000F0000000000000000000000000004F020008A7
:10010000000000004F0200084F0200084F020008E4
:1001100000000000000000000000000000000000DF
:100120004F0200084F0200084F0200084F0200086B
:100130004F02000800000000000000000000000066
:100140000000000000000000000000004F02000856
:100150004F0200084F0200084F0200084F0200083B
:100160004F0200084F0200080000000000000000DD
:10017000000000000000000000000000000000007F
:10018000000000004F020008000000000000000016
:100190004F02000800F002F800F03CF80AA090E8D6
:1001A000000C82448344AAF10107DA4501D100F032
:1001B00031F8AFF2090EBAE80F0013F0010F18BFC3
:1001C000FB1A43F001031847E40200000403000097
:1001D000103A24BF78C878C1FAD8520724BF30C873
:1001E00030C144BF04680C60704700000023002445
:1001F00000250026103A28BF78C1FBD8520728BF37
:1002000030C148BF0B6070471FB500F049F91FBDF2
:1002100010B510BD00F031F81146FFF7F5FF00F002
:100220001FF900F04FF803B4FFF7F2FF03BC00F032
:1002300057F800000948804709480047FEE7FEE7F5
:10024000FEE7FEE7FEE7FEE7FEE7FEE7FEE7FEE786
:1002500004480549054A064B70470000ED030008B5
:100260009501000870000020700600207002002038
:1002700070020020704770477047754600F02CF8F8
:10028000AE4605006946534620F00700854618B083
:1002900020B5FFF7DDFFBDE820404FF000064FF02E
:1002A00000074FF000084FF0000B21F00701AC46AB
:1002B000ACE8C009ACE8C009ACE8C009ACE8C009CA
:1002C0008D46704710B50446AFF300802046BDE868
:1002D0001040FFF7A8BF0000004870470C00002046
:1002E00001491820ABBEFEE7260002007047FEE77A
:1002F00070470000024881680278114481607047AD
:1003000000000020FEE7FEE7FEE7704712480168A4
:1003100041F48051016010481438016841F0010136
:1003200001600E48016841F428410160016A0C4AED
:10033000114301620B48016841F018010160016836
:1003400041F004010160016841F4407101600168FD
:1003500041F0400101607047443802400000024013
:1003600000005055003001401348016841F48041BD
:10037000016011481038016841F0020101600F4826
:10038000016841F0284101600C48243001680C4AA2
:10039000114301600B48016841F0180101600168D8
:1003A00021F004010160016821F4407101600168DD
:1003B00041F04001016070474038024000040240B3
:1003C00000005055003800408168C907FCD0C06863
:1003D000C0B2704782689207FCD5C1608168090687
:1003E000FCD470477047FFF785BF000002480168E2
:1003F00041F470010160704788ED00E00F4801682A
:1004000041F4003101600D481038016841F00101EC
:1004100001600B48016841F0A0010160016A41F4EC
:10042000EE410162074940F283600860081D0168DF
:1004300042F20C0211430160704700004038024054
:10044000000002400844004003490A681206FCD537
:100450000149091D0860704700440040FEE70000A4
:10046000FFF754FFFFF780FFFFF7C8FF094E0A4F61
:100470000A4D682421463046FFF7ACFF3846FFF7A7
:10048000A3FFFFF7E1FF2B460220401C9842FCDB54
:10049000F0E70000003001400038004080969800EE
:1004A0004FF04070E1EE100A70470000CC040008E5
:1004B000000000200C000000D0010008D804000853
:1004C0000C00002064060000EC01000801000000A0
:0804D000100000000000000014
:040000050800019559
:00000001FF
