:020000040800F2
:100000007006002089010008F5020008F1020008CE
:10001000F302000899020008DD0300080000000058
:10002000000000000000000000000000F9020008CD
:10003000DD02000800000000F7020008FB020008D3
:10004000A3010008A3010008A3010008A301000800
:10005000A3010008A3010008A3010008A3010008F0
:10006000A3010008A3010008A3010008A3010008E0
:10007000A3010008A3010008A3010008A3010008D0
:10008000A3010008A3010008A3010008A3010008C0
:10009000A3010008A3010008A3010008A3010008B0
:1000A000A3010008A3010008A3010008A3010008A0
:1000B000A3010008A3010008A3010008A301000890
:1000C000A3010008A3010008A3010008A301000880
:1000D000A3010008A3010008A3010008A301000870
:1000E000A3010008A3010008A301000800F002F822
:1000F00000F03AF80AA090E8000C82448344AAF188
:100100000107DA4501D100F02FF8AFF2090EBAE885
:100110000F0013F0010F18BFFB1A43F0010318473B
:10012000E002000000030000103A24BF78C878C144
:10013000FAD8520724BF30C830C144BF04680C60ED
:10014000704700000023002400250026103A28BF35
:1001500078C1FBD8520728BF30C148BF0B60704739
:100160001FB51FBD10B510BD00F031F81146FFF7E7
:10017000F7FF00F035F900F04FF803B4FFF7F2FF96
:1001800003BC00F057F800000948804709480047C1
:10019000FEE7FEE7FEE7FEE7FEE7FEE7FEE7FEE737
:1001A000FEE7FEE704480549054A064B7047000094
:1001B000FF020008ED00000870000020700600201B
:1001C000700200207002002070477047704775462B
:1001D00000F02CF8AE4605006946534620F00700B3
:1001E000854618B020B5FFF7DDFFBDE820404FF091
:1001F00000064FF000074FF000084FF0000B21F011
:100200000701AC46ACE8C009ACE8C009ACE8C009DD
:10021000ACE8C0098D46704710B50446AFF30080C6
:100220002046BDE81040FFF7A8BF00000048704717
:100230001000002001491820ABBEFEE72600020096
:10024000704700001148816941F4017181611048D3
:10025000016821F0C0010160016821F030010160F6
:100260000C48016841F0030101600A4908310A683D
:1002700042F038020A6007492C310A6842F0010254
:100280000A60016841F4807101607047001002400B
:100290000008014008240140FEE700000B484169C6
:1002A00041F0010141610A4800218160C1600161A2
:1002B000416108490161084941610121C1608168CA
:1002C00040F28952114381607047000000100240E3
:1002D000000002404C240140000000207047000054
:1002E0000248816802781144816070470400002050
:1002F000FEE7FEE7FEE770477047FFF7F1BF704784
:100300001548C16941F00101C161816941F00401F1
:1003100081611248016821F00C010160016841F01F
:1003200008010160016841F003010160C00441F669
:100330001F41018542F20F71818549108186018B31
:1003400041F060010183018C41F0010101840188C9
:1003500041F0010101807047001002400008014097
:100360000F48816944F20402114381610D4801681C
:1003700041F0B0010160016821F440710160016841
:1003800021F4806101600848018842F20C021143A7
:100390000180054940F24130091F08807047000084
:1003A00000100240040801400C38014009490A6865
:1003B00042F001020A60074908390A689207FCD531
:1003C00005490A881206FCD503490009091D088061
:1003D000704700000824014000380140FEE700009B
:1003E000FFF78EFFFFF75AFFFFF72CFFFFF7B8FF6D
:1003F000024B186880B2FFF7D9FFFAE74C2401409E
:10040000200400080000002010000000280100085F
:1004100030040008100000206006000044010008BD
:1004200000000000010000001000000000000000BB
:04000005080000ED02
:00000001FF
